:030000000200AF4C
:0C00AF00787FE4F6D8FD7581070200039D
:100057007F001200877FA07E86120075120075123E
:0E0067000075120075120075120075120075FA
:10007500E4FDFCD3ED9FEC9E50070DBD00010C8007
:01008500F288
:010086002257
:10008700D291D292C292E4FBFAEE339290C291D20D
:1000970091EF25E0FFEE33FE0BBB00010AEB641086
:0700A7004A70E6D292C291FB
:0100AE00222F
:100003007580FF7590FF75A0FF75B0FF12005C7FD0
:10001300007E011200877F007E211200877FF17E20
:10002300691200877F007E401200877FE37E931270
:1000330000877F017E801200877E201200577E2872
:100043001200577F027E201200597420FFFE120017
:040053008702000F11
:00000001FF
